:020000040800F2
:10000000E0200120C1010008C9010008CB0100085F
:10001000CD010008CF010008D10100080000000058
:10002000000000000000000000000000D3010008F4
:10003000D501000800000000D7010008513C00086D
:10004000DB010008DB010008DB010008DB01000820
:10005000DB010008DB010008DB010008DB01000810
:10006000DB010008DB010008DB010008DB01000800
:10007000DB010008DB010008DB010008DB010008F0
:10008000DB010008DB010008DB010008DB010008E0
:10009000DB010008DB010008DB010008DB010008D0
:1000A000DB010008DB010008DB010008DB010008C0
:1000B000DB010008DB010008DB010008DB010008B0
:1000C000DB010008DB010008DB010008DB010008A0
:1000D000DB010008DB010008DB010008DB01000890
:1000E000DB010008DB010008DB010008DB01000880
:1000F000DB010008DB010008DB010008DB01000870
:10010000DB010008DB010008DB010008DB0100085F
:10011000DB010008DB010008DB010008DB0100084F
:10012000DB010008DB010008DB010008DB0100083F
:10013000DB010008DB010008DB010008DB0100082F
:10014000DB010008DB010008DB0100081D390008A5
:10015000DB010008DB010008DB010008DB0100080F
:10016000DB010008DB010008DB010008DB010008FF
:10017000DB01000829390008DB010008000000004D
:10018000DB010008DB010008DB010008DB010008DF
:10019000DB010008DB010008DB010008DB010008CF
:1001A000DB010008DB010008DB010008DFF80CD0F0
:1001B00000F018FB0048004791710008E020012082
:1001C0000648804706480047FEE7FEE7FEE7FEE7F1
:1001D000FEE7FEE7FEE7FEE7FEE7FEE7013D00087B
:1001E000AD01000840EA01039B0703D009E008C9FC
:1001F000121F08C0042AFAD203E011F8013B00F8EC
:10020000013B521EF9D27047D2B201E000F8012B37
:10021000491EFBD270470022F6E710B513460A4686
:1002200004461946FFF7F0FF204610BD30B50446DE
:100230000020034600E05B1C934203D2E05CCD5CEF
:10024000401BF8D030BD2DE9F04D81EA030404F0E5
:10025000004B21F0004514464FF0000A23F0004106
:1002600050EA050220D054EA01021DD0C5F30A5716
:100270000246C5F31303C1F31300C1F30A5640F459
:10028000801543F48013A7EB0608101BD64608F22E
:10029000FD3873EB050002D308F1010801E0921864
:1002A0005B41B8F1000F03DA00200146BDE8F08D94
:1002B00000204FF48011064684460EE0171B73EBB6
:1002C000050705D3121B63EB050306434CEA010C3B
:1002D00049084FEA300092185B4150EA0107EDD11E
:1002E00052EA030012D082EA040083EA05010843BF
:1002F00005D0101BAB4106D20122002306E00022EC
:100300004FF0004302E06FF0010253101AEB0600B9
:100310004CEB085110EB0A0041EB0B01BDE8F04D2E
:1003200000F0BAB80EB540F2334102910021CDE998
:1003300000110A460B4600F0BEF803B000BD00F005
:10034000004230F000400AD0C10D01F56071C0F3E9
:10035000160042EA0151C2084007114370470020CD
:100360000146704701F0004330B421F0004150EAEB
:10037000010206D00A0DA2F56072C1F31301002A32
:1003800002DC30BC00207047440F44EAC104C100C5
:10039000E01830BC00EBC25000F047B830B50B4657
:1003A000014600202022012409E021FA02F59D42A5
:1003B00005D303FA02F5491B04FA02F52844151E79
:1003C000A2F10102F1DC30BD2DE9F05F054600200D
:1003D00092469B4688460646814640241BE02846B6
:1003E00041464746224600F01EFA53465A46C01A76
:1003F000914110D311461846224600F005FA2D1AF5
:1004000067EB01084F4622460120002100F0FCF96D
:1004100017EB00094E41201EA4F10104DFDC484621
:1004200031462A464346BDE8F09F0029A8BF7047E1
:10043000401C490008BF20F00100704710B4B0FA1A
:1004400080FC00FA0CF050EA010404BF10BC7047B5
:1004500049B1CCF1200421FA04F411FA0CF118BFCF
:10046000012121430843A3EB0C01CB1D4FEA00619E
:100470004FEA102042BF002010BC704700EBC35071
:1004800010440029A4BF10BC7047401C490008BF9D
:1004900020F0010010BC704710B5141E73F1000469
:1004A00008DA401C41F1000192185B411A4301D166
:1004B00020F0010010BD2DE9F04D92469B4611B190
:1004C000B1FA81F202E0B0FA80F22032904600F0F8
:1004D0009BF904460F4640EA0A0041EA0B015346E5
:1004E0005A46084313D0114653EA010019D0C8F107
:1004F0004002504600F097F905460E4650465946D0
:10050000424600F081F9084305D0012004E020466E
:100510003946BDE8F08D0020054346EAE0762C43DD
:1005200037430A986305E40AA0EB08000022FD0A9D
:1005300044EA47540A3002D500200146E9E70105A4
:1005400010196941DDE9084500196941BDE8F04D20
:10055000A2E72DE9FE4F804681EA0300C00F0C465A
:10056000009021F0004123F00045B8EB0200A941C2
:1005700005D24046214690461C460B46024623F0D3
:100580000040104347D0270DC7F30A00C3F30A51B8
:100590000290401A019040286BDAC3F3130040F434
:1005A000801B0098924620B10023D2EB030A63EB34
:1005B0000B0B01985946C0F14002504600F024F957
:1005C00006460D4650465946019A00F03CF910EB9C
:1005D00008006141002487EA115284EAE7731A4354
:1005E00040D0009A62B3019A012A4FEA075215DC03
:1005F000001B61EB02014FF0004202EA0752CDE915
:100600000042001C41F5801132462B46FFF753FF94
:1006100003B0BDE8F08F40462146F9E7001B61EBCF
:100620000201001C41F5801300185B412018A2F55F
:10063000001747EB030140EAD570B6196D4111E090
:100640006D084FEA360645EAC0754FEA0752001BAF
:1006500061EB0201001C41F5801149084FEA3000AE
:100660000019514132462B4603B0BDE8F04FFFF769
:1006700013BF0098012240000023D0EB020263EB7D
:10068000E073009821464FEAE074B8EB000061EB9C
:100690000401E9E783F000435BE781F0004158E79C
:1006A0002DE9FE4F81EA030404F0004421F00041EB
:1006B00000944FF0000B23F0004350EA01045ED099
:1006C00052EA03045BD0C3F30A54C1F30A552C4425
:1006D000A4F2F3340194A0FB0254C1F3130141F4DA
:1006E0008011C3F3130343F4801301FB024400FBA6
:1006F000034E840A970A44EA815447EA8357A4FBCD
:10070000076802958D0A05FB07854FEA932C04FBC9
:100710000C542705029D4FEA065847EA1637B5EBF9
:1007200008056EEB070C870E920E47EA811742EA26
:100730008312A7FB0201B6EB0B0164EB00042B0D47
:1007400043EA0C335E1844EB1C50DA465146E7FB93
:100750000201C5F313044FEA0B3343EA14534FEA83
:100760000432019C43EA0603A4F10C040294009CA9
:10077000CDE900B4FFF79FFE03B0BDE8F08F002085
:100780000146F9E7C1F30A52C1F3130140F2FF3306
:1007900041F480119A4202DA00200146704740F28B
:1007A00033439A42A2F2334202DC524200F03BB899
:1007B00000F02AB830B5041E71F1000404DB4FF0DC
:1007C0000044404264EB0101141E73F1000405DB98
:1007D0001C464FF00043524263EB0403994208BFAA
:1007E000904230BD064C074D06E0E06840F0010342
:1007F00094E8070098471034AC42F6D3FFF7DAFCD0
:100800006C9C00088C9C0008202A04DB203A00FA2B
:1008100002F1002070479140C2F1200320FA03F357
:10082000194390407047202A04DB203A21FA02F055
:100830000021704721FA02F3D040C2F1200291401A
:10084000084319467047202A06DBCB17203A41FAA5
:1008500002F043EAE07306E041FA02F3D040C2F14D
:100860002002914008431946704770B58C1810F863
:10087000015B15F0070301D110F8013B2A1106D1E5
:1008800010F8012B03E010F8016B01F8016B5B1EFF
:10089000F9D12B0705D40023521E0DD401F8013BDA
:1008A000FAE710F8013BCB1A921C03E013F8015B46
:1008B00001F8015B521EF9D5A142D8D3002070BDCA
:1008C0007CB5054600F0C0F8044600F0B7F80246D3
:1008D0000020CDE900050748074B006800EB8001C8
:1008E00001EBC00103EB81012346C96D00F022FD3D
:1008F0007CBD000084000020E49D00200A4B30B441
:100900001B6803EB4304094B03EB84039B68DD88FE
:100910001C689B88DB1DDB08203A13FB02F205FBF9
:10092000024230BC00F0F2BB84000020FC9E00209C
:10093000034840688068002800D0004770470000E6
:10094000840000202DE9F0470446002799468A4696
:100950001546B846104601E008F1010810F8011BE1
:100960000029F9D100F06AF8254A264E4B46116855
:10097000B9F1010F01EB410106EB8101896889881A
:10098000B0FBF1F002D0022B0BD105E0A0EB080088
:10099000484304EB500003E0A0EB080000FB0140DB
:1009A00084B2904600F04AF80146D8F8000000EB07
:1009B000400006EB80008068808807FB101189B238
:1009C000814213D3012012E051462046FFF796FFE3
:1009D000D8F800007F1C00EB400006EB8000BFB29F
:1009E00080686D1C8088204484B2DBE700202A7870
:1009F0000AB1012100E000210842E5D1BDE8F087FD
:100A000084000020FC9E002070B514460D4606466A
:100A100000F014F8074905FB0060096801EB81024A
:100A200002EBC101044A02EB8101C96D41F820408B
:100A300070BD000084000020E49D00200148406853
:100A4000806A00478400002001484068C06A00476F
:100A50008400002070B5214C1F480025206009202B
:100A600060610120A0611D20E0610320206240F24E
:100A70000D10606240F24310A06240F21710E06275
:100A800040F24710206384F8365084F8345004F163
:100A9000E80084F8355008210160C021016104217B
:100AA0008161C903416201F0A7FA6560A560E56054
:100AB000256100F059F8204601F0B4F909490848C9
:100AC00048600068804700F00FF90648083000F0E1
:100AD000E7F8002070BD000000680140E49D0020A0
:100AE000C00000208400002070B58EB000240E46A7
:100AF00005460094FFF7A2FFCDE90104FFF7A4FF2C
:100B00000996CDE90304FF20CDE905048DF83040B6
:100B10008DF831408DF832404FF4C06007900720C7
:100B20000890FFF78BFF0A90FFF78EFF0B902A4685
:100B300069460A4801F034F9094905EB450001EB23
:100B40008002631E5360074B93604FF07F4241F871
:100B50002020024801F04EF90EB070BDE49D002047
:100B6000FC9E00208C00002030B5434887B0002157
:100B7000026842F080620260006800F080600590C8
:100B80003D481438026842F400020260026802F430
:100B900000020592026842F001020260026802F05F
:100BA00001020592026842F002020260026802F04D
:100BB00002020592026842F004020260026802F03A
:100BC00004020592026842F008020260026802F024
:100BD00008020592026842F020020260026802F0F8
:100BE00020020592026842F040020260006800F0B4
:100BF0004000059041F6580000900220CDE9010127
:100C000003900E20049069461C4800F093FD4FF4B9
:100C100070601B4C00906946204600F08BFD4FF43D
:100C2000986000906946174800F084FD48200090C5
:100C30006946154800F07EFD20150090694613486E
:100C400000F078FD4FF40C60114D00906946284685
:100C500000F070FD032000900920049069462046B2
:100C600000F068FD4FF4A05000906946284600F05F
:100C700061FD07B030BD0000443802400000024072
:100C80000004024000080240000C02400014024030
:100C900000180240014908607047000084000020ED
:100CA0000449054A096801EB410102EB81018860B2
:100CB0007047000084000020FC9E0020094B842225
:100CC00002EBC01218680129815808D021F00101F7
:100CD00081501868416A41F001014162704741F05A
:100CE0000101F5E7E49D002070B51B481949042374
:100CF000016000F13401022207248B60C1E9002465
:100D0000C1E903424A618A611021C0E903314021EF
:100D1000416101260024C0E901644FF4C071C0E9BB
:100D200006149102C0E9081489008162214600F08E
:100D30005BF809490848343101F070FD074D08B1EE
:100D40002E7000E02C7040F26A5000F009F828780C
:100D500070BD0000400100A080A00020BC00002069
:100D60002DE9F84F1F4C0025012608270095C4E9FE
:100D70000067C4E9026582464FF6FF7921464A467C
:100D8000A1F1500001F07EFD012000F0C7FC02201F
:100D9000C4E90007C4E9026521464A46A1F15000B2
:100DA00001F070FD03204FF00408E56084E8810144
:100DB00021464A46A1F1500001F064FD4FF40C7049
:100DC0000090C4E90260C4E9008721464A46A1F1C7
:100DD000500001F057FD5146A4F15000BDE8F84F16
:100DE00001F03EBDD0A0002030B587B005007DD019
:100DF0004D480024016841F00101016000684A4942
:100E000000F0010008390590086840F4800008608F
:100E1000086800F480000590086840F0020008604F
:100E2000086800F002000590086840F004000860BF
:100E3000086800F004000590086840F008000860A9
:100E4000086800F008000590086840F0100008608D
:100E5000086800F010000590086840F02000086065
:100E6000086800F020000590086840F04000086025
:100E70000868694600F0400005900220CDE9024074
:100E800001900C20049060200090284800F052FC53
:100E9000012000906946264800F04CFC4CF203709B
:100EA00000906946234800F045FC4FF6837000909F
:100EB0006946214800F03EFC4FF63F00009069462D
:100EC0001E4800F037FC48F23310009069461C4879
:100ED00000F030FC1B498020C1E901408000C8605F
:100EE0004000086180004861800000E01AE0C1E92C
:100EF0000604C000C1E908040320C1E90A0412483D
:100F00000C630860296308468D6300F073FB0D488D
:100F100000F09CFB00220F21382001F03BF8382024
:100F200001F02BF807B030BD383802400004024011
:100F300000080240000C0240001002400014024071
:100F400000180240C09F002010640240124808B5FB
:100F50000268002142F001020260026802F0010210
:100F60000092026842F00102026000680B4A00F041
:100F7000010000900A4802604FF4E132C0E901210B
:100F8000C1600C220161C0E90521C16101F05BFF74
:100F9000002800D0FEE708BD3038024000100140B4
:100FA000C8860020F0B50468059D666C254F06F0E4
:100FB000404697FAA7F7B7FA87F7BB402B431E4383
:100FC00066640368DA634268B2F5403F02D00068A5
:100FD000C160F0BD01F47F4201F47F0C856801F02F
:100FE0007F4301F47F0701F47F46CCB242EA0C0252
:100FF000BDB1012D16D001F47F02D20CC1F3C401A2
:10100000022D11D0032D14D01D0F390D320B1201FA
:1010100042EA012141EA053242EA14120068826381
:10102000F0BD1A432243F9E7B30A5B0143EAC22247
:1010300006E0DB0FF40A640144EA822242EAC3328A
:101040000A43EBE70000FF3F01681823CAB2103AD9
:10105000B2FBF3F2054B6FF30901032A9B5CC365F6
:1010600000D9091D81650846704700009C9700085B
:1010700010B5014600208B698A6A4FF0C07453B1E5
:10108000B3F5005F15D072B1012A0CD0022A0AD044
:10109000032A09D104E01AB1012A06D0022A03D199
:1010A000C96AC90100D5012010BDC96AA142FAD0A0
:1010B00010BD002AF7D0012AF2D0022AF3D0032A69
:1010C000F3D010BD10B500224FEA020100EB8203FD
:1010D000521CC3F84C170F2AF8D300224FF40073A8
:1010E0008418521C84F81C149A42F9D30170417080
:1010F00001228270C0F888170276402383714176FE
:1011000080F81C1680F81D26002010BD2DE9F74F31
:10111000DFF8A4A00026DAF8000000EB4001274821
:1011200000EB810080688588C788E81D834620F031
:101130000700401B00F0FF093AE000BF4FEADB0167
:101140000298012901FB06000BD002290BD001787F
:1011500042780904807841EA022141EA000800242B
:101160001FE0007801E0008840BA8046F7E7291BBD
:1011700049440120491E884010EA080FDAF80000AF
:1011800000EB40010D4802D050F8212002E000EBB6
:101190008100426800980199204480B2FFF734FC36
:1011A000641CAC42E3D30198401C80B2761C0190D1
:1011B000BE42C3D3BDE8FE8F84000020FC9E002009
:1011C00070B5114C20684007FCD5104D00212868EF
:1011D000FFF774FD20684007FCD5286868B100203F
:1011E0000121FFF76BFD286848B10020FFF752FD91
:1011F000286830B10020286070BD0120F0E7012090
:10120000F4E70120F7E7000048680140640000208F
:1012100030B5D1E901231A43D1E903352B431A43F1
:101220004B690C681A438B691A43D1E90735012CC5
:10123000496A046807D01A432A436FF30E040A432D
:10124000224302600AE024F4F8442B4321430B4379
:10125000416803606FF30E010A434260002030BD15
:10126000426942EA4101416100207047F8B51446E5
:101270000546D1E9000210438A686FF01F03C96870
:1012800003EB421242EA412108430090286100F03A
:101290003DFB064609E0601C07D024B100F036FB98
:1012A000801BA04201D90320F8BDA8698006F2D4B2
:1012B0000020F8BDF0B56FF00F05D1E9003405EB63
:1012C00004145B1E23432E018C682F0306EB0424B9
:1012D00023434FEA054C0C8A8E8ACD68097E4FF075
:1012E0007F4E07EB04440CEB06560EEB0161012A1E
:1012F0000CD082683F1107EB05352B432343334362
:1013000002F070420B43134383600FE08768084A82
:1013100017402A03A2F580523243C5683A4323435B
:1013200005F070450B432B438260C3600020F0BD85
:10133000FF0F0FFF2DE9F8430E460746DDE90818B9
:10134000124815464FF4403242600022C0E90221A3
:101350000F491C46016000F07FF8002814D139467F
:101360000A4800F017F800280ED12B4632464146B5
:101370000648009400F024F9002805D1BDE8F843A0
:101380000A21024800F096B8BDE8F8838C9E002040
:1013900000B00240F0B500EB011290F8383018327E
:1013A0004FF44036012B2BD0012580F83850022312
:1013B00080F8393054680A2C24D0092C22D096FAAF
:1013C000A6F69368B6FA86F6B3404FF07F4797FAD1
:1013D000A7F7D668B7FA87F7BE40334323430029FF
:1013E0001C4C016818D0CE6926401E43CE610368AC
:1013F0001168196151680A2920D009291ED022E0FC
:101400000220F0BD96FAA6F69368B6FA86F6B340C7
:10141000D66806F07F46E0E74E6A26401E434E62DD
:1014200003681168996151680A2901D009290AD114
:10143000D168026821F07F41916204E0D1680268BE
:1014400021F07F41116280F83950002180F8381076
:101450000846F0BDF0FFFC0070B5040004D094F81D
:101460003900002510B106E0012070BD84F8385025
:10147000204600F01EF8022084F839002068016838
:10148000626821F44031114301602068416BA26819
:1014900021F00701114341632068016CE2686FF39A
:1014A0000D0111430164E563012084F83900002037
:1014B00070BD70472DE9F843002604460096006889
:1014C0000D4600684FF00407C0074FF0030825D011
:1014D00000F01CFA81461DE04068009010F0210FDA
:1014E0000FD00098800603D5E06B40F00200E06367
:1014F0000098C00703D0E06B40F00100E0632120BA
:1015000032E0681C06D0C5B300F000FAA0EB090079
:10151000A8423CD8206841688907DDD52068C169A8
:10152000890602D4406A800640D500F0EFF9814672
:1015300038E04068009010F0290F1FD00098000795
:1015400003D5E06B40F00400E0630098800603D50B
:10155000E06B40F00200E0630098C00703D0E06B4E
:1015600040F00100E06329202168886084F8397028
:1015700084F838600120BDE8F88308E0681C11D0C9
:101580002DB100F0C3F9A0EB0900A8420AD954F824
:101590003C0F40F0200044F8040984F801802670D4
:1015A0000320E8E720684168C906C2D521681220F7
:1015B0008860012084F8390084F838600020DAE778
:1015C00038B50446049894F83850012D10D0012500
:1015D00084F83850022584F8395000902046FFF7EF
:1015E000E1FC2068016841F001010160002038BD84
:1015F000022038BD70B5040025D094F835000228CB
:1016000020D02068016821F00101016020680025D8
:10161000056020684560206885602068C560206896
:1016200005612168212048612046FFF70DFD94F8EF
:101630005C203F2191408160656584F8355084F8D5
:101640003450002070BD012070BD00002DE9F04134
:10165000044600F05BF906465CB1002584F834507E
:10166000022084F835002068016821F00101016042
:101670000DE00120BDE8F08100F048F9801B05284D
:1016800005D920206065032084F83500F2E7206842
:101690000068C007F0D1226811681F480140D4E9F2
:1016A00001031843D4E903363343184363691843ED
:1016B000A3691843E3691843236A18430843616A1E
:1016C000042903D1D4E90B1319430843106020689F
:1016D0004069666A20F0070130460E43012704285E
:1016E0000AD1A06A06432046FFF7C2FC20B1402081
:1016F000606584F83570BCE7206846612046FFF7D6
:10170000A3FC94F85C203F2191408160656584F8DA
:1017100035700020AEE700003F8010F031B500F0DA
:10172000F5F8044600F0F2F80099001B8842F9D35E
:1017300038BD00002DE9F84FDFF890B100224FF0DE
:1017400001084FF0030A4FF00F090BF1040E00BF20
:101750000B6808FA02F42340A3426ED14D68022DB3
:1017600001D0122D0ED1D50800EB850CDCF82050ED
:101770005607F70E09FA07F6B5430E69BE402E4329
:10178000CCF82060066855000F790AFA05FC07F0CE
:10179000030726EA0C06AF40374307604E68012E68
:1017A00005D0022E03D0112E01D0122E0ED1876843
:1017B000CE6827EA0C07AE403E4386604668A643E3
:1017C0000C79C4F30014944034434460C4688E68B8
:1017D00024EA0C04AE402643C6604C68E4006FD592
:1017E0003B4C256845F480452560246822F00305BC
:1017F00004F480440094374C2E19D6F80848950715
:101800002F0F09FA07F5AC43334DA84201D100254B
:101810002EE0324DA84201D1012529E0304DA842E9
:1018200001D1022524E02F4DA84201D103251FE05C
:101830002D4DA84202D104251AE041E02B4DA842CB
:1018400001D1052514E02A4DA84201D106250FE05B
:10185000284DA84201D107250AE0274DA84201D111
:10186000082505E0254DA84201D1092500E00A25FB
:10187000BD402543C6F80858DBF800405D464E6879
:101880009C43F60300D51C432C60DEF800407546EF
:101890004E689C43B60300D51C432C600B4D0835A5
:1018A0002C684E689C43F60200D51C432C60074D03
:1018B0000C352C684E689C43B60200D51C432C6046
:1018C000521C102AFFF444AFBDE8F88F003C0140E1
:1018D0004438024000300140000002400004024051
:1018E00000080240000C02400010024000140240B8
:1018F00000180240001C0240002002400024024068
:101900000AB1816170470904FBE7000001480068E3
:10191000704700009C000020D0F8940202F02FBF16
:10192000D0F8940202F040BF006803F0B1BE006836
:1019300003F0B2BE01EB810100EBC10090F85C0046
:10194000704701EB810100EBC100C06C704710B51E
:10195000044690F89002012809D0012084F89002F2
:10196000206803F0A4FE002084F8900210BD02203D
:1019700010BDFEB50546DDE9096095F89042089F67
:10198000012C1ED0012485F8904201EB810405EB67
:10199000C40402F07F0C04F8383F20816170E671C6
:1019A00084F802C04FEAD21C84F803C02771009764
:1019B000CDE90160286803F01FFF002185F890122F
:1019C000FEBD0220FEBD70472DE9F00301EB81044E
:1019D000DDE90689DDE908C700EBC404022684F8C6
:1019E0003B2084F83F30B8F1000F0AD084F8426001
:1019F000002553B1012B3FD0022B1DD0032B2AD140
:101A000020E0032584F84250F2E7B8F1010F22D11B
:101A10000ABBBCF1000F10D1012284F8512002E072
:101A200084F8425001E084F8426094F85C20022A75
:101A300011D084F83D700EE02AB994F85120002AA4
:101A4000F1D1EDE712B194F8502001E094F8512063
:101A500092B184F84260C4E9119C84F85C50E5645A
:101A600084F8391084F85D50027C04F13801006874
:101A7000BDE8F00303F03CBF84F84250EBE7000000
:101A80002DE9F041044600680025064603F00BFEF0
:101A900001287DD1206804F07EF8002878D02068E5
:101AA00004F079F8800203D521684FF400104861F2
:101AB000206804F070F8C00203D521684FF480104C
:101AC0004861206804F067F8400103D521684FF0B1
:101AD00080604861206804F05EF8800702D52168C4
:101AE00002204861206804F056F8800010D5D6F82E
:101AF000400420F02E00C6F840042046FFF710FFF7
:101B00000121206804F02CF821684FF00050486152
:101B1000206804F040F8C00102D5204601F08CFC9A
:101B2000206804F038F8000705D5204600F0D5F805
:101B3000216808204861206804F02DF8800120D534
:101B4000206803F0CEFE07464FF0010812E000BF08
:101B500008FA05F038420CD006EB4510D0F8000525
:101B6000E9B20004204602D501F035FA01E001F0A7
:101B70004DFB6D1CA068A842EAD821684FF00070A8
:101B80004861206804F007F8C0060ED5206800E020
:101B90000BE0816921F010018161204601F0A2FC77
:101BA0002068816941F010018161BDE8F08130B5A4
:101BB0008BB0040026D0032084F89102204600F068
:101BC00023F8206803F000FD04F1100128220D46DF
:101BD0006846FEF707FB94E80F0003F0A7FC01211D
:101BE000206804F002F8282229466846FEF7FAFA2F
:101BF00094E80F0003F04AFF012084F891020020CE
:101C00000BB030BD0120FBE72DE9F0432E4C87B02F
:101C10000025206840F002002060206800F00200EB
:101C20000590206840F0040020602068022700F042
:101C3000040005904FF44040CDE9000702AA0326B6
:101C40004FF00C08DFF8849082E86001694648464E
:101C5000FFF770FD3803CDE90005CDE9025669466E
:101C60004846FFF767FDA0140090CDE90175CDE966
:101C7000035869464846FFF75DFD206840F0005074
:101C80002060206801AA00F000500590102000900C
:101C9000012082E861000E4C69462046FFF74AFDAC
:101CA000012210212046FFF72BFEC820FFF736FD4A
:101CB000002205214D2000F06DF94D2000F05DF966
:101CC00007B0BDE8F0830000303802400004024055
:101CD00000080240006803F072BFD0F8940202F0DE
:101CE000B2BD10B5044690F8900201280DD0012035
:101CF00084F89002206803F0A3FC0121206803F01F
:101D000089FC002084F8900210BD022010BD10B59F
:101D1000044690F89002012809D0012084F890022E
:101D2000206803F078FF002084F8900210BD0220A4
:101D300010BD000002480168491C016070470000A6
:101D40009C0000200B4810B5016841F4007101604F
:101D5000016841F480610160016841F480710160B3
:101D6000032000F037F9002000F006F800F0D9F861
:101D7000002010BD003C024010B5044607484FF457
:101D80007A710068B0FBF1F001F045F800222146BD
:101D9000501E00F0FFF8002010BD0000A000002041
:101DA0002DE9F041044690F8A00016460F460128A0
:101DB0001DD0012584F8A050022084F8A10006EB74
:101DC000860000EBC60004EB800034223830FEF7BA
:101DD00009FA32463946204601F080FC2068456207
:101DE00084F8A150002084F8A000BDE8F081022012
:101DF000FBE7000090F8A01001290ED0012100F8A7
:101E0000A01F02224270064A136843F48033136015
:101E100041700021017008467047022070470000A1
:101E20001868014070B5040004D094F8A1000025A2
:101E300010B106E0012070BD84F8A050204600F0EB
:101E40006FF8022084F8A1002068816921F07041B8
:101E50008161D4E901010843D4E903121143084325
:101E600021688A691043886121688A682B4802408A
:101E70008A60A18A0A0421688B68A66933431343E8
:101E80008B602168CA680240CA60A18B0A0421687D
:101E9000CB68266A33431343CB6021680A6902404A
:101EA0000A61A18C0A0421680B69A66A33431343B3
:101EB0000B6121684A6902404A612268A08D51691C
:101EC000236B194341EA0041516194F835002168C0
:101ED000020294F83600CB6A03F07F43CB6221689C
:101EE000CB6A94F8346042EA004033430343CB6248
:101EF0002068416B41F0040141632068416B41F06F
:101F0000020141632068816941F001018161C4F8E7
:101F1000A450012084F8A100002070BD00F800F05A
:101F2000704710B5072000F055F8002211466FF0F9
:101F30000B0000F02FF8002211466FF00A0000F0AD
:101F400029F8002211466FF0090000F023F8002262
:101F50001146501F00F01EF800221146101F00F01D
:101F600019F800221146901E00F014F80022BDE876
:101F700010401146501E00F00DB8002809DB00F09B
:101F80001F02012191404009800000F1E020C0F8CB
:101F900000117047F0B40E4B1B680C46C3F30223CC
:101FA000C3F10705042D00D90425191D072901D205
:101FB000002300E0DB1E012606FA05F1491E214040
:101FC00099409E40761E16403143F0BC03F0B4BEEB
:101FD0000CED00E0064900F0070208684FF6FF0329
:101FE000184040EA0220034A10430860704700008E
:101FF0000CED00E00000FA052DE9F84F04460068FA
:10200000A24EA34DC10747F6C07A4FF0E0474FF00C
:10201000010B4FF0000901D180074CD59D49C1F853
:102020006890FFF773FC804606E000BFFFF76EFC88
:10203000A0EB080002287DD828680001F6D420789B
:10204000C10795480DD09AFAAAF26168B2FA82F2F5
:10205000914097FAA7F3A268B3FA83F39A40114329
:1020600001602178890716D5016897FAA7F201F077
:10207000E041B2FA82F2D1406268237B920142EAE7
:10208000036242EA017101603068E16920F01F00DB
:10209000491E084330607F49C1F868B0FFF736FC3D
:1020A000804605E0FFF732FCA0EB0800022841D88B
:1020B00028680001F6D52068410701D400077CD5C7
:1020C0007449C1F87090FFF721FC804606E000BF1C
:1020D000FFF71CFCA0EB080002282BD82868C0439F
:1020E0008000F5D520784FF0706241076B482CD501
:1020F000016897FAA7F301F0E041B3FA83F3D940FE
:102100009AFAAAFC2369BCFA8CFC03FA0CF392FA43
:10211000A2F8D4F814C0B8FA88F80CFA08FC43EA1C
:102120000C0397FAA7FCBCFA8CFC01FA0CF10B43E8
:10213000036000E081E03168236A6FF0FF0C21F456
:10214000F8510CEB0323194331602178090722D59C
:1021500001689AFAAAFC01F0706392FAA2F1B1FA4E
:1021600081F1CB402169BCFA8CFC92FAA2F201FA0F
:102170000CF1B2FA82F29340194397FAA7F3A269DD
:10218000B3FA83F39A40114301603068616A20F426
:102190004030084330603F49C1F870B0FFF7B6FBEC
:1021A000064606E009E000BFFFF7B0FB801B0228EF
:1021B00043D82868C0438000F6D42078800653D5E1
:1021C00033484E464030016841F08051016000685C
:1021D000334D00F080500090286840F480702860F3
:1021E000FFF794FB074604E0FFF790FBC01B0228B3
:1021F00023D82868C005F7D5274D143D286810F46A
:10220000407020D0218D01F4407181421BD028689C
:10221000244920F44070C1F800B00E60286028689E
:10222000C00710D0FFF772FB064641F2883707E07F
:10223000FFF76CFB801BB84202D90320BDE8F88F82
:1022400028688007F4D5A16A1148C1F3012208303B
:10225000032A13D0016821F4F81101602868218D48
:10226000C1F30B01084328602078C00604D50E494D
:1022700094F82C00C1F8E0010020DFE702680B4B66
:1022800022F4F81219400A430260E7E78C38024052
:10229000003802400000474284380240883802403B
:1022A00000700040400E474200104742FFFCFF0F05
:1022B0002DE9F047DFF8649105460F46D9F8000094
:1022C00000F00F01F8B28046B94208D2014689F801
:1022D0000010D9F8000000F00F00B84274D128783F
:1022E0004F4C800705D52068A96820F0F00008430E
:1022F00020602878C00759D0494968680839012802
:102300001AD002281BD0032819D009688907002990
:102310005ADA216821F0030101432160FFF7F6FA40
:102320006968064641F28830012911D002291DD082
:102330000329824627D035E009688903E7E7096861
:102340008901E4E7FFF7E2FA811B514501D926E054
:1023500082462068C0F381000128F3D126E000BF47
:10236000FFF7D4FA811B514501D918E08246206855
:10237000C0F381000228F3D118E000BFFFF7C6FACE
:10238000811B51450BD82068C0F381000328F5D18B
:102390000CE000BFFFF7BAFA811B514502D90320B8
:1023A000BDE8F087206810F00C0FF3D1D9F80010C9
:1023B000484601F00F01B94208D980F80080006852
:1023C00000F00F00B84201D00120E9E7287840076B
:1023D00005D52068E96820F4E0500843206028789B
:1023E000000706D52068296920F4604040EAC10052
:1023F000206000F051F82168F02292FAA2F201F078
:10240000F001B2FA82F2D140064A515CC840064956
:1024100008600020FFF7B0FC0020C1E7003C02404C
:10242000083802408C970008A0000020014800688E
:1024300070470000A00000200848094900680968AA
:102440004FF4E05292FAA2F201F4E051B2FA82F2B1
:10245000D140044A515CC84070470000A0000020F1
:10246000083802408C970008084809490068096844
:102470004FF4604292FAA2F201F46041B2FA82F2A1
:10248000D140044A515CC84070470000A0000020C1
:10249000083802408C97000830B51948006810F0E1
:1024A0000C01184812D0441004290ED008290DD16F
:1024B0001349091F0A6802F03F030A68550247F6EC
:1024C000C07204D5B4FBF3F003E0204630BDB0FB8E
:1024D000F3F00B680968134092FAA2F2B2FA82F2A2
:1024E000D34058434FF4403292FAA2F201F4403103
:1024F000B2FA82F2D140491C4900B0FBF1F030BD84
:10250000083802400024F4002DE9F84F0546DFF8B2
:10251000FC920078A9F1040BC007ABF1040449D088
:10252000D9F800104846C1F38101012908D000689C
:10253000C0F3810002280AD1DBF80000400206D572
:102540002068800336D5686800286ED032E068685D
:10255000B0F5803F10D0B0F5A02F206810D020F447
:1025600080302060206820F4802020606868A0B15E
:10257000FFF7CCF906460CE0206840F48030F4E721
:1025800040F480202060F7E7FFF7C0F9801B642843
:1025900071D820688003F7D50CE0FFF7B7F906463D
:1025A00005E000BFFFF7B2F9801B6428F0D820686F
:1025B0008003F7D42878964F80074FF0010A4FF038
:1025C000000841D5D9F80010484611F00C0F08D08A
:1025D0000068C0F3810002280AD1DBF80000400245
:1025E00006D42068800713D5E86801281DD10FE0C4
:1025F000E868D8B1C7F800A0FFF788F9064604E0FC
:10260000FFF784F9801B0228C2D820688007F7D51D
:102610002068F82292FAA2F22969B2FA82F220F036
:10262000F8009140084320600EE0ECE0C7F800801D
:10263000FFF76CF9064604E0FFF768F9801B0228F3
:1026400019D820688007F7D42878000724D5714866
:10265000696989B1C0F800A0FFF758F9064604E09F
:10266000FFF754F9801B022805D868486C300068D1
:102670008007F5D510E07AE0C0F80080FFF746F952
:10268000064604E0FFF742F9801B02286FD85F4836
:102690006C3000688007F5D42878400753D55B4834
:1026A0003830016841F080510160006800F08050CE
:1026B00000905948016841F480710160FFF726F9E4
:1026C000064604E0FFF722F9801B02284FD8524843
:1026D0000068C005F6D54D4EA868683601280FD0B1
:1026E0000528306810D020F001003060306820F0FC
:1026F00004003060A868B8B1FFF708F900900FE057
:10270000306840F00100F4E740F004003060F7E783
:10271000FFF7FCF80099411A41F2883081426AD8EB
:1027200030688007F4D50EE0FFF7F0F8009007E07E
:10273000FFF7ECF80099411A41F2883081425AD8EB
:1027400030688007F4D4A869E8B3D9F80010C1F361
:102750008101022957D00228C7F8608003D0FFF713
:10276000D5F805464AE0FFF7D1F8064605E042E015
:10277000FFF7CCF8801B02283DD820688001F7D4F1
:10278000D5E90701084347F6C07292FAA2F2696AD6
:10279000B2FA82F29140AA6A4FF0FF3303EB520281
:1027A0004FF4403393FAA3F3B3FA83F39A401143FF
:1027B00008434FF0706292FAA2F2E96AB2FA82F22A
:1027C0009140084300E01CE0CBF80000C7F860A08F
:1027D000FFF79CF8054604E0FFF798F8401B022835
:1027E00009D820688001F7D50BE000BFFFF78EF80D
:1027F000401B022802D90320BDE8F88F2068800121
:10280000F4D40020F8E70120F6E700000838024081
:1028100000004742800E47420070004070B50D46F0
:10282000040003D094F82C0010B107E0012070BD23
:10283000002084F82D00204600F011F8022084F8D2
:102840002C00211D2068FEF7E3FCD4E90002294694
:10285000FEF730FD012084F82C00002070BD704789
:1028600010B5044690F82C00022809D0022084F804
:102870002C002068FEF7F4FC012084F82C000020D6
:1028800010BD000070B5044690F82C000D460228DB
:102890000DD0022084F82C002068FEF7E7FC2868A1
:1028A000022805D05FF0010084F82C00002070BDE4
:1028B0000520F9E710B5040011D0022084F851007A
:1028C0002068016821F040010160204600F04CF8CA
:1028D0000020606584F8510084F8500010BD01208C
:1028E00010BD90F85100704770B5040005D0002568
:1028F000A56294F8510010B106E0012070BD84F883
:102900005050204600F031F8022084F85100206831
:10291000016821F040010160D4E901010843D4E9D4
:1029200003121143084361690843218B01F40071CC
:102930000843E1690843216A0843A16A0843216802
:102940000860A069042101EA1040616A0843216817
:1029500048602068C16921F40061C161656501209A
:1029600084F85100002070BD704770472DE9F84F82
:10297000044640680026984617460D464FF0040965
:10298000B0F5827F01D1A06890B194F85000012881
:1029900019D04FF0010B84F850B0FEF7B7FF00904C
:1029A00094F851004FF0000A01280ED002267FE073
:1029B00084F8519013460A462046CDF8008000F076
:1029C00031F9BDE8F88F0220FBE7002D6FD0002F12
:1029D0006DD084F85190C4F854A0A563A787E78709
:1029E000C4F830A0A4F834A0A4F836A0C4F840A0DD
:1029F000C4F844A0A0684FF40047B84204D120684E
:102A0000016821F48041016020680168490603D40F
:102A1000016841F040010160E068B8B133E020682E
:102A20008168C90706D0007B05F8010BE08F401EC6
:102A3000E0870BE0B8F1000F23D0B8F1FF3F05D0DD
:102A4000FEF764FF0099411A41451AD2E08F002831
:102A5000E5D11BE020688168C90706D0C06825F869
:102A6000020BE08F401EE0870DE0B8F1000F08D0A8
:102A7000B8F1FF3F07D0FEF749FF0099411A4145E1
:102A800001D3032614E0E08F0028E3D16068B0F59D
:102A9000827F0AD1A068B84202D0B0F5806F04D11D
:102AA0002068016821F040010160606D00B10126DD
:102AB00084F851B084F850A0304682E72DE9F84FF1
:102AC000044690F850000026994617460D46012806
:102AD0000DD04FF0010B84F850B0FEF717FF804681
:102AE00094F85100B246012804D0022694E0022056
:102AF000BDE8F88F002D7BD0002F79D0032084F81B
:102B00005100C4F854A02563A786E786C4F838A00E
:102B1000A4F83CA0A4F83EA0C4F844A0C4F840A087
:102B2000A068B0F5004F04D12068016841F48041ED
:102B3000016020680168490603D4016841F0400142
:102B40000160E068B0F5006F606804D030B3E08EDB
:102B5000012823D03EE010B1E08E01281AD135F8CB
:102B6000021B206805E020688168890706D535F8D2
:102B7000021BC160E08E401EE0860BE0B9F1000F41
:102B800034D0B9F1FF3F05D0FEF7C0FEA0EB08013D
:102B900049452BD2E08E0028E5D11EE0216815F8CA
:102BA000010B087306E020688168890706D515F8CF
:102BB000011B0173E08E401EE0860BE0B9F1000FAF
:102BC00014D0B9F1FF3F05D0FEF7A0FEA0EB08013D
:102BD00049450BD2E08E0028E5D14B460122022167
:102BE0002046CDF8008000F07DFF10B1032613E0F1
:102BF00011E042464946204600F064FF18B1012624
:102C00002020606508E0A06818B92068C168806865
:102C10000090606D00B1012684F851B084F850A096
:102C2000304665E72DE9F84F044690F8500000263D
:102C30000A9F9A4693460D464FF0010801280ED090
:102C4000012084F85000FEF761FE814694F851009F
:102C5000616801280CD0B1F5827F07D102E0022023
:102C6000BDE8F88FA16809B9042801D00226BDE0AB
:102C700055B1BBF1000F07D0BAF1000F04D094F8A2
:102C80005100012802D004E00126AFE0052084F8BD
:102C9000510000206065C4F838B0A4F83EA0A4F844
:102CA0003CA02563A4F836A0A4F834A02064606496
:102CB00020680168490603D4016841F040010160C1
:102CC000E068B0F5006F606804D0E8B3E08E0128DA
:102CD0003BD06AE010B1E08E01282ED1216835F892
:102CE000020BC860E08E401EE08626E0B8F1000FBF
:102CF0000DD0E08E58B120688168890707D535F876
:102D0000021BC160E08E401EE0864FF00008E08F9D
:102D100058B120688168C90707D0C0682BF8020B3A
:102D2000E08F401EE0874FF00108781C05D0FEF7C9
:102D3000EDFDA0EB0900B84246D2E08E0028D5D1C7
:102D4000E08F0028D2D136E0FFE7216815F8010BAB
:102D50000873E08E401EE08627E000BFB8F1000F48
:102D60000DD0E08E58B120688168890707D515F825
:102D7000011B0173E08E401EE0864FF00008E08FDB
:102D800058B120688168C90707D0C0680BF8010BEB
:102D9000E08F401EE0874FF00108781C05D0FEF759
:102DA000B5FDA0EB0900B8420ED2E08E0028D5D1C7
:102DB000E08F0028D2D13B46012202212046CDF8E7
:102DC000009000F08FFE08B103260FE04A46394616
:102DD000204600F077FE18B101262020606505E04E
:102DE000A06818B92068C16880680090012084F844
:102DF0005100002084F85000304631E74FF0E021C8
:102E00000428086903D020F004000861704740F0EE
:102E10000400FAE7704710B5401EB0F1807F01D37F
:102E2000012010BD4FF0E02460610F21601702F017
:102E300083FF0020A06107202061002010BD10B595
:102E4000FFF7E8FF10BD70B5040004D094F8390016
:102E5000002510B106E0012070BD84F838502046EE
:102E600000F022F8242084F839002068C16821F499
:102E70000051C160204600F06DFF2068016921F417
:102E8000904101612068416921F02A014161206877
:102E9000C16841F40051C160E563202084F8390025
:102EA00084F83A00002070BD30B51A4887B0002180
:102EB000026842F001020260026802F0010205921B
:102EC000026842F001020260006800F00100059013
:102ED00010481430026842F01002026000680724B3
:102EE00000F0100005904FF4007000900220CDE932
:102EF0000101CDE90304084D69462846FEF71AFC96
:102F000028150090694604942846FEF713FC07B084
:102F100030BD000030380240000002402DE9F84387
:102F2000044690F839001F4616460D46202850D119
:102F3000A5B19EB194F8380001284AD0012084F848
:102F400038004FF00008C4F83C80212084F8390094
:102F5000FEF7DCFCA6848146E68426E00120BDE87D
:102F6000F883E08C401EE084A0684B46B0F5805F9B
:102F70004FF000024FF080012046009703D001F08F
:102F80003FF8E8B90DE001F03BF8C8B9288821689E
:102F9000C0F308004860206908B16D1C05E0AD1C55
:102FA00003E0216815F8010B4860E08C0028D8D1B7
:102FB0004B46002240212046009701F021F808B13D
:102FC0000320CCE7202084F8390084F838800020E2
:102FD000C5E70220C3E72DE9F05F06460068884692
:102FE00000EB4814D4F808054FF0040B410708EB38
:102FF00088004FF0050A4FF0100706EBC00508D512
:10300000C4F808B5D4F80C0540F00200C4F80C056B
:1030100032E0D4F80805800601D520202AE0D4F853
:1030200008054FF00809000710D5D4F80C0540F04A
:103030000200C4F80C0585F85DA0C4F80875C4F852
:1030400008954146306802F032FB15E0D4F80805D7
:10305000400511D5D4F80C0540F00200C4F80C0569
:103060004146306802F023FBC4F8087585F85D908E
:103070004FF48060C4F80805D4F8080580050ED523
:10308000D4F80C0540F00200C4F80C05414604F5E4
:10309000A164306802F00BFB4FF400708FE0D4F8AD
:1030A00008054FF00001C0074FF0010238D0306929
:1030B00030B1A86CD4F81035C3F31203C01AE86419
:1030C00085F85D20A965C4F8082595F83F0030B162
:1030D000022804D0032810D001280ED019E0D4F81B
:1030E0000C0540F00200C4F80C05414604F5A1644B
:1030F000306802F0DCFA27600BE0D4F8000540F0FD
:103100000050C4F8000585F85C2041463046FEF7C3
:103110005AFC15F8500F80F001002870BDE8F09FB0
:10312000D4F80805800733D5D4F80C0520F0020048
:10313000C4F80C0595F85D000223012806D0052887
:1031400007D0062808D0082806D018E085F85C20AB
:1031500015E085F85CA012E0A86D421CAA65032862
:1031600003D9A96585F85CB001E085F85C30D4F836
:10317000000520F0804040F00040C4F80005C4F88D
:10318000083595F85C2041463046FEF71CFCC5E743
:10319000D4F80805000614D5D4F80C0540F0020058
:1031A000C4F80C05A86D4146401CA865062085F8AA
:1031B0005D0004F5A164306802F079FA8020206097
:1031C000ACE7D4F80805C006A8D595F83F00032859
:1031D00003D068B102280BD012E0D4F80C0540F0FF
:1031E0000200C4F80C054146306802F060FA07E0BE
:1031F000D4F8000520F0804040F00040C4F80005FD
:10320000032085F85D00C4F8087587E72DE9F047CD
:10321000026802EB4114D4F808254FF0040C520761
:1032200009D5C4F808C5D4F80C0540F00200C4F86C
:103230000C05BDE8F087D4F8082501EB8103920660
:103240004FF0020600EBC30514D52022C4F8082570
:1032500095F83D20012AECD185F85DC0D4F80C2505
:1032600042F00202C4F80C25006802F020FA85F84A
:103270005C60DEE7D4F808254FF0000352060FD556
:1032800085F85DC0AB65D4F80C2542F00202C4F8A5
:103290000C25006804F5A16402F009FA402010E052
:1032A000D4F8082592050ED5D4F80C2542F0020278
:1032B000C4F80C25006804F5A16402F0F8F94FF495
:1032C00000702060B5E7D4F808254FF00108D20758
:1032D00010D0AB65D4F80C2542F00202C4F80C25DE
:1032E000006804F5A16402F0E2F9C4F8008085F8F2
:1032F0005D809EE7D4F808254FF0080912074FF0CB
:10330000050A0DD5C4F80895D4F80C2542F0020240
:10331000C4F80C25006802F0CAF985F85DA088E7BA
:10332000D4F808254FF01007D20610D5AB65D4F8B5
:103330000C2542F00202C4F80C25006804F5A164D3
:1033400002F0B5F9032085F85D00276071E7D4F835
:10335000082512060FD5D4F80C2542F00202C4F855
:103360000C25006804F5A16402F0A1F9062085F897
:103370005D008020A5E7D4F80825520511D5D4F8C2
:103380000C2542F00202C4F80C25006804F5A16483
:1033900002F08DF927604FF48060206085F85D9021
:1033A00047E7D4F8082592078CD5D4F80C2522F0ED
:1033B0000202C4F80C2595F85D20012A0AD0032AE0
:1033C00015D0042A16D0052A19D0062A1AD0082AA0
:1033D00018D02AE085F85C8095F83F20022A24D195
:1033E00095F8512082F0010285F851201DE085F802
:1033F0005C601AE085F85C6085F83D3015E085F882
:103400005CA012E0AA6D571CAF65032A03D9AB6517
:1034100085F85CC001E085F85C60D4F8002522F0F6
:10342000804242F00042C4F80025C4F8086595F8CF
:103430005C20FEF7C8FAFCE67CB504680546D4F8C3
:1034400040040190D4F8400420F02E000090019830
:1034500080070DD50198C00706D0A06920F0005163
:10346000A1612846FEF758FA009840F0020000904B
:10347000019800072CD5009840F0080000900198B2
:1034800040071AD5A869022803D0E86803280CD0A1
:103490000FE00198C0F341400228286803D00121C1
:1034A00002F05EFB05E00221FAE74EF66020C4F868
:1034B00004042846FEF730FA0AE0D4F8400420F06D
:1034C0002E00C4F840042868816941F000518161F0
:1034D00001988006009802D540F020000090C4F8C2
:1034E00040047CBD2DE9F041024600680646016AB1
:1034F000C1F3434301F00F07C1F30A14022B25D196
:10350000002C23D007EB870102EBC105696C002971
:103510001CD0224602F043FB686C20446864E86CCF
:103520002044E86406EB4710D0F81015084A114211
:103530000CD0D0F8001521F0804141F00041C0F8D6
:10354000001515F8500F80F001002870BDE8F081DB
:103550000000F81FFEF7E2B82DE9F041244886B0DC
:103560000178002940D1234C0125057020680026F0
:1035700040F0080020602068022700F00800059055
:1035800068038DE8E100DFF8708069464046FEF789
:10359000D1F8206840F0080020602068694600F0FB
:1035A00008000590A0148DE8E1004046FEF7C2F83F
:1035B000206840F0040020602068104C00F00400F7
:1035C000059004208DE8E10069462046FEF7B2F838
:1035D000002204212046FEF793F90122042120460F
:1035E000FEF78EF900F0D4FA06B0BDE8F0810000D5
:1035F000A400002030380240000C024000080240C5
:103600002DE9F843154D0C460746002204212846B3
:10361000FEF776F9DFF848804FF400560022314675
:103620004046FEF76DF9384600F000FB0D48224693
:103630006946C3680C48FFF799F908B100F09EFA93
:10364000012231464046009CFEF75AF9012204212E
:103650002846FEF755F92046BDE8F88300080240E9
:10366000000C0240A4000020689F002070B50546B1
:10367000012251030948FEF743F9094C00220421B5
:103680002046FEF73DF9284600F0D0FA2046BDE876
:10369000704001220421FEF733B90000000C024003
:1036A0000008024070B5054600224FF40051094859
:1036B000FEF726F9084C002204212046FEF720F9E7
:1036C000284600F0B3FA2046BDE8704001220421EC
:1036D000FEF716B9000C024000080240F0B503687E
:1036E0008C88DD68C5F30B452C442504882404EB45
:1036F000C2141E5906F470461E5103680F68DE6836
:10370000C6F30B46761C3E442E431E5104688B893B
:10371000E568C5F30A052B441D048C2303EBC21393
:10372000E65806F47046E65004688F68E668C6F30B
:103730000A06761C3E442E43E6509423046803EBAD
:10374000C213E55825F00705E55005680C69EC50F3
:1037500091F831300C7E1F0226069C24056804EB8C
:10376000C21491F8323055F804C04FF0000C45F8FF
:1037700004C091F8305046EA03433D431D430368BB
:103780001D519823046803EBC213E55825F0FF058B
:10379000E55005684C69EC50A023046803EBC213A4
:1037A000E55840F20776B543E550D1E907452C438B
:1037B0000568EC50AC23046803EBC213E55844F8E9
:1037C00003C005684C6AEC500B698BB3012B32D0F7
:1037D000042B32D0022B30D0032B2ED0072B2CD031
:1037E0000123B024056804EBC2142E5906F0E0262C
:1037F0002E51D1E90065AD1B0E8D5D435E43ED1C7E
:1038000045EA064305682B51B423046803EBC21351
:10381000E5586FF30A05E5500468C96AE15000688D
:10382000842101EBC211425842F001024250F0BD26
:10383000FFE70423D5E70323D3E70223D1E7000002
:1038400030B5264887B00024016841F010010160BE
:10385000016801F010010591016841F00401016067
:10386000016801F004010591016841F080010160E7
:10387000016801F080010591016841F001010160DA
:10388000016801F001010591016841F00201016048
:10389000016801F002010591016841F00801016031
:1038A00000680F4D00F00800059001221021284605
:1038B000FEF726F8102000900120CDE901046946AA
:1038C00028460394FDF736FF2020CDE90004694621
:1038D00028460294FDF72EFF07B030BD3038024075
:1038E0000008024010B500220649074800F0F4FE27
:1038F0000649054801F050FABDE81040024801F0C1
:10390000B3BA00007D4E0008188700200000002098
:10391000014801F0CFB80000188700200148FEF7E9
:10392000AFB80000B08E00200148FEF7A9B8000033
:10393000B08E002070B50446012902D0022927D09C
:1039400091E09078012806D0022806D003280DD0F7
:103950000428F5D113E0226085E0B4F8C20004EB3E
:103960008001401CA4F8C2004A607CE0B4F8C400A6
:1039700004EB8001401CA4F8C400CA6273E0B4F8F0
:10398000C60004EB8001401CA4F8C6004A646AE04B
:103990009078082867D2DFE800F06604666639454B
:1039A0000F1A94F8C80003285DD204EB8001401C74
:1039B00084F8C800CA6456E094F8C900032852D2BB
:1039C00004EB8001401C84F8C9008A654BE094F840
:1039D000CA000A2847D204EB8000426650799179E8
:1039E00000EB012085B2D079117A00EB012086B27C
:1039F0001EA002F07DF9324629461FA002F078F998
:103A000025A002F075F914F8CA0F2AE094F8CB004B
:103A1000032828D204EB8001401C84F8CB00C1F8B5
:103A20008C2020E094F8CC000A281CD204EB800003
:103A3000C0F898205079917900EB012085B2D079B7
:103A4000117A00EB012086B208A002F051F932464B
:103A5000294612A002F04CF90FA002F049F914F81F
:103A6000CC0F401C2070002070BD00004445425522
:103A700047203A20000000004D4A5045472046723A
:103A8000616D652064657465637465643A202564BE
:103A900020782025640000000D0A0000556E636F39
:103AA0006D70726573736564204672616D65206424
:103AB000657465637465643A202564207820256404
:103AC0000000000038B50B46009204460022802119
:103AD00000F008F8002804D0606D40F02000606518
:103AE000032038BD2DE9F0411D4617460E46044619
:103AF000DDF8188035E0681C33D02DB1FDF706FFE6
:103B0000A0EB0800A8422CD32068416821F0E00116
:103B100041606068B0F5827F0BD1A068B0F5004FBE
:103B200002D0B0F5806F04D12068016821F0400117
:103B30000160A06AB0F5005F0AD1206801684DF607
:103B4000FF72114001602068016841F4005101607A
:103B5000012084F85100002084F850000320BDE8C3
:103B6000F0812068806836EA000004D00020B84266
:103B7000C1D10020F3E70120F9E7000010B50348A8
:103B8000FEF798FEBDE8104000F002B8689F0020E4
:103B900000B587B02148FEF7A4FE00283BD11F489E
:103BA0001F4901601821C161002181604161072224
:103BB0000161C0E90A12C1604FF4007201628261C2
:103BC00041624FF4827141601648016841F48011EE
:103BD0000160006800F480100590124814380168F4
:103BE00041F0200101600068694600F02000059066
:103BF0004FF4607000900220019002900120039029
:103C0000052004900848FDF795FD07B003485DF8CE
:103C100004EBFEF769BE07B000BD0000689F0020FE
:103C200000500140443802400014024001B50648EB
:103C300001226946C3680548FEF740FF002801D00D
:103C4000FFF79CFF08BD0000A4000020689F002033
:103C500010B5FEF76FF8BDE81040FFF7F0B80000B0
:103C600030B5254893B00025016841F080510160CE
:103C7000006800F0805011902048016841F44041F4
:103C800001600068022400F440401190012000907F
:103C9000000401908001CDE9064004200890A8208E
:103CA000CDE9090407200B906846FEF72DFC00B112
:103CB000FEE70CA90F2081E831004FF4A0500F90CF
:103CC0004FF48050109005210CA8FEF7F1FA00B1D6
:103CD000FEE7FEF7ABFB4FF47A71B0FBF1F0FFF7B4
:103CE0009AF80420FFF78AF800221146501EFEF7CA
:103CF00051F913B030BD0000403802400070004060
:103D00001048016841F4700101600F48016841F0FA
:103D1000010101600C4A00210832116002680B4B5E
:103D20001A400260031D0A4A1A60026822F48022C7
:103D3000026005480C30016002495806803908606D
:103D40007047000088ED00E000380240FFFFF6FEFB
:103D5000103000242DE9F04104460068016921F487
:103D60004052E168114301612168C86849F20C6260
:103D700090432369A268E5691A4363692B431A4398
:103D80000243CA602168486920F44072A069104368
:103D90004861E1696425B1F5004F9748974A216869
:103DA0004FF032083FD0914201D081427CD1FEF7E2
:103DB0005BFB00EBC00101EB001061688900B0FB08
:103DC000F1F6FEF751FB00EBC00101EB001061685A
:103DD0008900B0FBF1F0B0FBF5F06FF0180148433B
:103DE00006EB800108EB0110B0FBF5F000F0F006E7
:103DF000FEF73AFB00EBC00101EB0010616889009F
:103E0000B0FBF1F0B0FBF5F006EB0016FEF72CFB73
:103E100000EBC00101EB001061688900B0FBF1F715
:103E2000FEF722FBD2E0914201D081423DD1FEF764
:103E30001BFB00EBC00101EB001061684900B0FB07
:103E4000F1F0B0FBF5F00601FEF70EFB00EBC00150
:103E500001EB001061684900B0FBF1F7FEF704FBCD
:103E600000EBC00101EB001061684900B0FBF1F00C
:103E7000B0FBF5F06FF01801484307EB800108EB49
:103E8000C100B0FBF5F000F0F80006EB4006FEF7CD
:103E9000EBFA00EBC00101EB001061684900B0FBD8
:103EA000F1F7FEF7E1FA3CE055E0FEF7C5FA00EB6A
:103EB000C00101EB001061684900B0FBF1F0B0FBFC
:103EC000F5F00601FEF7B8FA00EBC00101EB0010B7
:103ED00061684900B0FBF1F7FEF7AEFA00EBC001F4
:103EE00001EB001061684900B0FBF1F0B0FBF5F0A8
:103EF0006FF01801484307EB800108EBC100B0FBED
:103F0000F5F000F0F80006EB4006FEF795FA00EB3E
:103F1000C00101EB001061684900B0FBF1F7FEF74A
:103F20008BFA00EBC00101EB001061684900B0FBA7
:103F3000F1F0B0FBF5F06FF01801484307EB80019A
:103F400008EBC100B0FBF5F000F007002168304439
:103F50008860BDE8F081FEF76FFA00EBC00101EB6D
:103F6000001061688900B0FBF1F6FEF765FA00EB1E
:103F7000C00101EB001061688900B0FBF1F0B0FBFB
:103F8000F5F06FF01801484306EB800108EB0110D3
:103F9000B0FBF5F000F0F006FEF74EFA00EBC001C2
:103FA00001EB001061688900B0FBF1F0B0FBF5F0A7
:103FB00006EB0016FEF740FA00EBC00101EB001023
:103FC00061688900B0FBF1F7FEF736FA00EBC0013B
:103FD00001EB001061688900B0FBF1F0B0FBF5F077
:103FE0006FF01801484307EB800108EB0110B0FBAC
:103FF000F5F000F00F00A9E70014014000100140A7
:104000002DE9F041984617460E460446069D1DE0F0
:10401000681C1BD02DB1FDF779FCA0EB0800A8426D
:1040200014D92068C16821F4D071C1602068416949
:1040300021F001014161202084F8390084F83A0020
:10404000002084F838000320BDE8F0812068006873
:1040500036EA000004D00020B842D9D00020F3E7AF
:104060000120F9E710B500224FF6FF7300EB820440
:10407000B4F84C47240409D49A4205D000EB8200DE
:1040800041F40041C0F84C17D0B210BD521CD2B25E
:104090000B2AEBD31A46F7E710B500F060FB0020BF
:1040A00010BD7FB51C46012501AE0023009586E8B2
:1040B0000E002A46214600F067FC04B0002070BDC7
:1040C00070B504460120A3780546012B09D0022BC8
:1040D00006D1204600F024F948B1022800D1A5708D
:1040E00070BDA160A28125760221A17070BDA5706E
:1040F0000021217670BD7FB51D4690F81D36089CC5
:1041000003B100240123CDE90031CDE902240023CD
:104110001A46294600F038FC04B0002070BD1FB5D7
:1041200000231446CDE900310822CDE902231A46C6
:10413000214600F029FC04B0002010BDFDF7EEBAC6
:1041400070B5002400F2326004EB840505EBC40571
:1041500000EB4505EE7B0A358E4201D0FF2909D1DF
:10416000AE79964201D0FF2A04D1ED799D4207D065
:10417000FF2B05D0641C64B20A2CE5DBFF2070BD68
:10418000E0B270BD30B5002300F2326003EB83046F
:1041900004EBC30400EB4404257B0A348D4204D1B4
:1041A000E478944201D1D8B230BD5B1C5BB20A2BDB
:1041B000ECDBFF2030BD0B2907D200EB8100B0F80B
:1041C0004C17C1F30E01C0F84C170020704730B4F3
:1041D0008578029C012D0FD141F0800101740621E8
:1041E000417403214282B1EB122F02D140F2094106
:1041F00000E000218182C482224630BC1946FFF7CC
:104200005FBF0A8803781A440A800178084470471F
:10421000F8B50E4600F11C05009104462B464FF4FC
:1042200000720021FFF7D3FF070005D1324629466F
:1042300004F2326000F0CAFB3846F8BD38B50D46CE
:104240000091044600F21C434FF480720021FFF7F6
:10425000BEFF01003DD104F5C46094F81C24027037
:1042600094F81D24427094F81E2494F81F34082DED
:1042700002EB0322428094F82024027194F8212456
:10428000427194F82224827194F82324C27120D9B7
:1042900094F8242494F8253402EB0322028194F844
:1042A000262494F8273402EB0322428194F8282430
:1042B00094F8293402EB0322828194F82A24827331
:1042C00094F82B24C27394F82C24027494F82D24AF
:1042D0004274084638BDF8B51C461646009341F4B2
:1042E000407200F21C431D460021FFF770FF0028BA
:1042F00014D16978032911D129788A1EA24200DCE1
:1043000014460021A2B2AD1C04E06B5C891C06F8C7
:10431000013B89B29142F8D300213170F8BD000011
:104320002DE9F84F04460125007E0B262F464FF05D
:1043300009084FF007094FF0050B4FF00D0A0C2844
:104340001ED2DFE800F0B2060E212C38445C6778FC
:104350008495627904F110012046FFF7E0FE022007
:104360000DE06179204600F06AFA012877D1207CBF
:10437000E18A00F0800021B180283BD10320207623
:1043800093E0802814D02FE0D4F88807E0812379C7
:10439000A2892046A168FFF784FE0420EFE7217977
:1043A000204600F04CFA012802D0052841D056E002
:1043B00084F8188079E000976379A2892046A16883
:1043C000FFF799FED4F88807E0810620D7E76179E6
:1043D000204600F034FA012806D0052807D002282C
:1043E00008D0042809D060E084F818905DE00C2023
:1043F00020761EE084F818B057E0267654E00022BC
:10440000237911462046FFF74CFED4F88807E08157
:104410000820B4E72179204600F011FA012804D0E1
:10442000042823D0052804D03FE084F818A00025F4
:104430003BE0032539E000970022637911462046CE
:10444000FFF759FED4F88807E0810A2097E76179E1
:10445000204600F0F4F9012804D00228A8D004284E
:1044600004D022E0002584F818A01EE026761CE087
:10447000607E401CC0B26076022805D8204600F05D
:1044800073FA2776A77010E0D4F894270621204607
:1044900090470020607606A001F02AFC06A001F0FB
:1044A00027FC09A001F024FC02252846BDE8F88F6E
:1044B0004552524F523A2000436F6E74726F6C2017
:1044C0006572726F720000000D0A00002DE9FE4354
:1044D0000126417800250446374600F21C48082989
:1044E00056D2DFE801F0040F27565E68788F082166
:1044F0002046FFF7A3FE00284AD194F82706A071B2
:1045000067702CE012212046FFF798FE0028F3D1B7
:10451000B4F82A1647A001F0EBFB49A001F0E8FB34
:10452000B4F8281647A001F0E3FB45A001F0E0FB3A
:1045300002203EE00121204600F06CFC002872D1F0
:104540000220FFF7FBFD394684F81C7640A001F0FD
:10455000CFFB3BA001F0CCFB03206070A07994F866
:104560001D160091CDE9015094F81C362179802266
:10457000204600F021FAA07994F81D160091CDE9AB
:10458000015094F81C3661790022204600F014FA9C
:1045900049E009212046FFF73BFE002843D10420D3
:1045A00007E0B4F834162046FFF732FE00283AD16F
:1045B0000520607037E094F82E16062549B1FF23D8
:1045C00042462046FFF787FE00282CD1414626A010
:1045D0000DE02AA013E094F82F16072571B1FF23F0
:1045E00042462046FFF777FEE8B9414628A001F091
:1045F0007FFB13A001F07CFB657014E028A001F0A4
:1046000077FBF6E794F8301681B1FF234246204647
:10461000FFF761FE38B9414625A001F069FB08A00B
:1046200001F066FB00263046BDE8FE8325A001F0C0
:104630005FFBF4E75049443A202578680000000009
:104640000D0A00005649443A202578680000000011
:104650004164647265737320282325642920617383
:104660007369676E65642E004D616E756661637473
:1046700075726572203A2025730000004D616E75D9
:104680006661637475726572203A204E2F41000096
:1046900050726F64756374203A2025730000000027
:1046A00050726F64756374203A204E2F41000000F1
:1046B00053657269616C204E756D626572203A2097
:1046C0002573000053657269616C204E756D6265DB
:1046D00072203A204E2F410070B50D46040011D0D3
:1046E00084F88C270020C4F84407C4F84807204603
:1046F000FCF7E8FC0DB1C4F89457204600F0B2F87E
:10470000002070BD05A001F0F3FA06A001F0F0FA58
:1047100009A001F0EDFA022070BD00004552524F91
:10472000523A2000496E76616C696420486F737458
:104730002068616E646C65000D0A00007FB51C4640
:10474000012501AE002392B2009586E80E002B46AB
:104750002A46214600F018F904B0002070BD10B5BB
:104760000024D0F89007FDF7F2F830B1012801D00D
:10477000022801D0022400E00124204610BD10B51B
:10478000017819B10178012909D00AE0012180F8E6
:104790001E16D0F8942722B10421904701E002218F
:1047A0000170002010BD000010B5044600F0DCF8D8
:1047B00021792046FFF7FFFC61792046FFF7FBFCDB
:1047C000002084F81E06D4F8942712B10521204653
:1047D000904706A001F08CFA0AA001F089FA204661
:1047E00000F0B2F803202070002010BD5553422085
:1047F00044657669636520646973636F6E6E656393
:10480000746564000D0A000010B5C820FCF786FF2F
:10481000002010BDD0F89007FDF793B810B5012423
:10482000D0F89007FDF783F820B1012805D00228C1
:1048300003D101E0002400E00224204610BDD0F89E
:104840009007FDF777B8D0F88817491CC0F888178B
:1048500001780A2905D1D0F84417002901D08969C7
:104860000847704770B5044690F88C5700211848E7
:1048700008230222012D13D0164D0161056001624B
:10488000C0E90621C0E902310121C0F89442416328
:10489000C4F890070E48FDF78AF978B1022070BD80
:1048A000C0F894424FF0A045C4F8900705608360BB
:1048B0000323C0E90331C0E90621EBE70448FDF713
:1048C00033F80146204600F02CF8002070BD0000AF
:1048D000B08E002000000440FEB508AC94E8E00073
:1048E0008DE8E0000024D0F89007FDF742F830B1E1
:1048F000012801D0022801D0022400E00124204632
:10490000FEBD10B50024D0F89007FDF7E3F930B1F3
:10491000012801D0022801D0022400E00124204611
:1049200010BDC0F888177047D0F8900701EB8101DF
:1049300000EBC10090F83B1011B180F8502001E06D
:1049400080F851200020704710B50024D0F890075F
:10495000FDF7C7F930B1012801D0022801D00224A7
:1049600000E00124204610BD10B50024D0F89007C7
:10497000FDF7CDF930B1012801D0022801D0022481
:1049800000E00124204610BD2DE9FF410AAC94E867
:10499000E0108DE8E0100024D0F89007FDF714F83F
:1049A00030B1012801D0022801D0022400E0012406
:1049B00004B02046BDE8F081FEB508AF97E870006E
:1049C0008DE87000FFF788FF0020FEBD2DE9F8415B
:1049D00005460B782B704B786B708B78CC7808463B
:1049E00003EB04236B800B792B714B796B718B7903
:1049F000AB71CB79EB710027017A2972092A57D95B
:104A00000921ADF800104EE06946FFF7FAFB417846
:104A1000042946D107EB870101EBC70105EB4108EB
:104A2000017888F80A10417888F80B10817888F8A6
:104A30000C10C17888F80D10017988F80E104179B2
:104A400088F80F10817988F81010C17908F10A04EC
:104A500088F81110017A2172002618E06946FFF7E4
:104A6000D0FB4178052912D108EBC60102780A75FE
:104A700042784A7582788A75C278CA750279437914
:104A8000761C02EB03220A8382798A7676B2217938
:104A9000B14204DD6988BDF800209142DED87F1C58
:104AA0007FB20A2F04DA6A88BDF800108A42ABD8B8
:104AB000BDE8F881FEB5044602208DF8000021789B
:104AC000002008270C2605460B2913D2DFE801F049
:104AD00006DB13D0DB48B5626B76C90094F81E067E
:104AE000002807D001202070C820FFF727FB2046B0
:104AF000FFF707FFC7E065A001F0FAF868A001F032
:104B0000F7F86420FFF71AFB2046FFF787FE84F8CA
:104B10001D060520207000212046FFF7A3FA6071D2
:104B200080212046FFF79EFA20710146A07994F873
:104B30001D260092CDE9015094F81C3680222046B3
:104B4000FFF73AFFA07994F81D160091CDE90150C6
:104B500094F81C36617900222046FFF72DFF92E081
:104B60002046FFF7B3FC0028C4D14EA001F0C0F8E6
:104B70004BA001F0BDF884F81F5694F831060128C7
:104B800001D0072065E04CA001F0B2F844A001F08C
:104B9000AFF806E0D4F89427002A74D0012120460B
:104BA000904727706FE094F83716204600F040F9E0
:104BB000002868D10920207049A024E0D4F84817C3
:104BC00001B3C4F8445794F8412600BF04EB8001B8
:104BD000D1F840170B79934201D1C4F84417401C17
:104BE00010F0FF00F2D0D4F8440718B381682046D3
:104BF000884770B12670D4F8440701683FA001F0DF
:104C000077F802E045A001F073F825A001F070F8F4
:104C100039E006202070D4F84407016847A001F06D
:104C200067F81FA001F064F8D4F894270321204608
:104C3000904728E0267046A0E5E7D4F8440750B135
:104C40000169204688478DF800009DF80000D0B922
:104C50000A20207017E0267047A001F049F848A00C
:104C6000D1E7D4F8440770B14169204688470AE08B
:104C70002046FCF727FAD4F8440720B1C168204643
:104C80008847C4F844570020FEBD00005553422019
:104C90004465766963652041747461636865640086
:104CA0000D0A0000456E756D65726174696F6E2046
:104CB000646F6E652E000000546869732064657629
:104CC00069636520686173206F6E6C7920312063A1
:104CD0006F6E66696775726174696F6E2E00000091
:104CE00044656661756C7420636F6E666967757282
:104CF0006174696F6E207365742E00004465766977
:104D00006365206E6F7420737570706F7274696E56
:104D10006720257320636C6173732E004E6F2043F0
:104D20006C61737320686173206265656E207265C3
:104D300067697374657265642E00000025732063D3
:104D40006C61737320737461727465642E0000006B
:104D50004E6F207265676973746572656420636C59
:104D600061737320666F722074686973206465765E
:104D70006963652E000000004552524F523A2000F0
:104D8000496E76616C696420436C61737320447270
:104D9000697665722E00000010B50022A1B1D0F82E
:104DA000483753B10BA000F0A3FF0CA000F0A0FF08
:104DB00011A000F09DFF022204E00123C0F8483753
:104DC000C0F84017104610BD02A000F091FF0BA0E4
:104DD000ECE700004552524F523A20004D617820D6
:104DE000436C617373204E756D62657220726561EC
:104DF00063686564000000000D0A0000496E76617A
:104E00006C696420436C6173732068616E646C65C7
:104E1000000000008278012A06D1002202740523D6
:104E2000437441828282C28200221146FFF748B950
:104E30008278012A06D10022027409234374418238
:104E40008282C28200221146FFF73AB98378012B91
:104E500006D103740B234374428281820021C182F4
:104E600000221146FFF72CB910B50446FFF76CFD80
:104E700001212046FFF7C8FC002010BD70B5044694
:104E8000104806291CD2DFE801F01B1B1703191577
:104E90004FF480752946204600F014FB2946204631
:104EA00000F0E8FA00280BD169002046BDE8704008
:104EB00000F008BB032102E0022100E001210170A3
:104EC00070BD00007000002070B51D4D04464FF00D
:104ED000FF30E860287870B101282FD194F8CB001A
:104EE000012816D017A000F003FF94F8CB1017A0EC
:104EF00000F0FEFE1BE094F8C900012806D011A0C6
:104F000000F0F6FE94F8C9101BA0F1E7A06DC07880
:104F100013E0D4F88C40042222A1601DFBF786F92F
:104F200050B108A000F0E4FE20A000F0E1FEBDE8D2
:104F3000704028A000F0DCBEE078E86070BD0000A2
:104F4000200000204552524F523A20004E6F7420EC
:104F5000737570706F7274656420554E434F4D5079
:104F60002064657363726970746F7273206E756DFF
:104F70006265723A202564004E6F742073757070FC
:104F80006F72746564204D4A5045472064657363B1
:104F9000726970746F7273206E756D6265723A20FB
:104FA0002564000059555932000000004E6F7420EE
:104FB000737570706F7274656420554E434F4D5019
:104FC0002064657363726970746F722074797065A0
:104FD000000000000D0A0000F0B522494FF0FF323A
:104FE0000A610A460C78936852682CB1012C1ED1D4
:104FF000002490F8CC6031E0002490F8CA6014E0FE
:1050000000EB84056D6E6F7995F806C007EB0C27F1
:10501000974208D1EF7995F808C007EB0C279F421B
:1050200001D1ED780D61641CE4B2A642E8D8F0BD70
:1050300000EB8405D5F898506F7995F806C007EB1A
:105040000C27974208D1EF7995F808C007EB0C2799
:105050009F4201D1ED780D61641CE4B2A642E7D80D
:10506000F0BD00002000002070B5D0F844170125E5
:105070000426CC692178052927D2DFE801F0260330
:105080002103120094F80E11012902D00320207090
:105090001BE094F80C110022FFF7D8FEA8B9267087
:1050A00013E094F80E1101290FD194F80D2194F812
:1050B0000C11FFF7CBFE40B902202070A07004E075
:1050C000D0F89427022190470025284670BDF0B5FE
:1050D00004460220D4F8441700231A46CD6902EB97
:1050E000820101EBC20104EB410191F841660E2EF1
:1050F0001FD191F84266022E1BD191F848663706FF
:1051000017D5B1F84A76A7B103EB830705EB47073C
:105110003E71B1F84A66FE8091F83E667E7291F863
:105120003F663E7291F84C16B98101215B1CB97241
:10513000DBB2521CD2B20A2AD1D3002B00D00020FD
:10514000F0BD0000F8B50546D0F844070126C46953
:10515000A078022802D0032830D10AE094F80F3159
:10516000B4F80A2116492846FFF7E8FA0320A07090
:1051700024E094F80F112846FFF761FB01281DD1A8
:10518000D5F88807D4F81411401A94F81011884201
:1051900014D3D5F88807C4F8140194F80F112846E1
:1051A00004F58574FFF736FB009080B202F0DEFA5A
:1051B0006379228802492846FFF7C0FA3046F8BDD5
:1051C000C602002070B50546D0F844070026C46921
:1051D00094F80F1149B12846FEF75EFF94F80F11BD
:1051E0002846FEF7E8FF84F80F61D5F84407C06948
:1051F00020B101F0D1FBD5F84407C661002070BD95
:10520000FEB50025064602242B4601220E21FEF79C
:1052100097FFFF281AD04FF4A477384602F066F8BB
:10522000D6F844170446C8613946FAF7F4FF304609
:10523000FFF74DFF022816D00021012701EB810066
:1052400004EB4000827A012A17D02EE03BA000F048
:105250004FFDD6F8440701683AA000F049FD43A08D
:1052600000F046FD68E0D6F84407016840A000F071
:105270003FFD3EA000F03CFD3DE0C288AA4214D9AB
:10528000B2F5806F11D21546427A84F80C21027A69
:1052900084F80D21027984F80821C288A4F80A2133
:1052A000007B84F8100184F80E71491CC9B20529ED
:1052B000C4D339A000F01CFD29463AA000F018FD27
:1052C0002AA000F015FD304600F07EF804F1380009
:1052D0000546FFF7F9FD3A480068401C0BD0284608
:1052E000FFF77AFE37480068401C04D094F80E019E
:1052F000012802D01DE00220FEBD94F808113046BE
:10530000FEF7B0FE84F80F01014696F81D06CDE9C0
:1053100000074FF47A72029296F81C3694F808212E
:105320003046FFF749FB94F80F1100223046FFF793
:10533000FBFA2770677000242046FEBD4552524F8D
:10534000523A200043616E6E6F742046696E64208D
:1053500074686520696E7465726661636520666F46
:105360007220257320636C6173732E000D0A000098
:10537000257320636C61737320636F6E6669677554
:10538000726174696F6E206E6F7420737570706FC8
:10539000727465642E0000004445425547203A204F
:1053A0000000000053656C656374656420455020FF
:1053B00073697A653A202564206279746573000008
:1053C0002C000020300000202DE9F8430546D0F8DD
:1053D00044074FF000084746C6690920ADF80000B1
:1053E000A6F8FA80A6F8FC8005F11C04A6F8F8805F
:1053F00025E069462046FEF704FF0446407804286D
:1054000002D024281BD109E094F90270E278F9B2A5
:105410002846FEF7B7FE4FFA80F810E095F83606FA
:10542000B8420CDB08EB880101EBC80005EB40003B
:10543000224690F8421606F13800FEF77BFAB5F8DE
:105440003406BDF800108842D3D80020BDE8F883A8
:1054500010B5D0F844170124C96991F80E1101293B
:1054600001D1FFF76FFE204610BD002070470020DD
:105470007047000070B50E46044622211048FAF726
:10548000CAFEA1202074D4F844071A258121C069DE
:105490006174668290F80C01A082E5822A46084970
:1054A0002046FEF70DFE0128F8D0002804D104485C
:1054B000D0F8120008B1002070BD022070BD0000BD
:1054C000A40200202DE9F0411A2501270E460446CA
:1054D000B1F5807F0DD122211048FAF79CFE0F48CC
:1054E0000F490780097881700E490978C1700E490B
:1054F000416021202074D4F84407C0696774668233
:1055000090F80C01A082E5822A4604492046FEF765
:10551000D7FD0128F8D00020BDE8F081A4020020CA
:105520002C000020300000201516050070B5044640
:10553000049D06990D9801290CD0E06840F04000C8
:10554000E060204600F024F84FF48030A063012D85
:1055500016D019E0A16B21F48031A163E1680B4AF8
:105560001140E160E16821F44011E160012803D1BC
:10557000E06840F48010E060204600F009F8E6E7BB
:10558000A06840F02000A060002070BDBFFFBDFFFC
:1055900001220C4902E0521C8A420BD80369002BFD
:1055A000F9DA026942F001020261012204E0521CB0
:1055B0008A4201D9032070470369DB07F7D1002035
:1055C00070470000400D0300816821F001018160F7
:1055D0000020704730B50246012400230C4800EA41
:1055E000C44040F0004502F5A06000EB41100561A9
:1055F00002F5A06000EB4110036823F0804343F004
:10560000004302F5A06000EB41100360002030BDB4
:105610000000F81F08B5D0F8402422F02E020092B6
:10562000D20405D4012909D1009941F4805103E045
:1056300021B9009921F48051C0F84014002008BD20
:10564000816841F001018160002070470021102233
:105650000261054A491C914201D903207047036940
:10566000DB06F7D400207047400D03000022202302
:1056700043EA811101610549521C8A4201D9032084
:10568000704703699B06F7D400207047400D030064
:10569000D0F8080480B2704708B5D0F840040090F4
:1056A000C0F3414008BD406900F00100704710B5EB
:1056B0000246002302F5A06000EB41100068C0F331
:1056C000814040B102F5A06000EB41100068C0F3DA
:1056D0008140022846D102F5A06000EB411000682D
:1056E00040F0804402F5A06000EB41100460D06AF5
:1056F00000F47F0048BB02F5A06000EB4110006899
:1057000020F0004402F5A06000EB4110046002F5B7
:10571000A06000EB4110006840F0004402F5A0607A
:1057200000EB4110046000BF581C0346B0F57A7FBF
:1057300000D909E002F5A06000EB4110006800F01C
:105740000040B0F1004FEFD053E002F5A06000EB55
:105750004110006840F0004402F5A06000EB4110E9
:10576000046046E002F5A06000EB4110006840F0E4
:10577000804402F5A06000EB411004604FF48260A9
:10578000805880B248BB02F5A06000EB4110006871
:1057900020F0004402F5A06000EB4110046002F527
:1057A000A06000EB4110006840F0004402F5A060EA
:1057B00000EB4110046000BF581C0346B0F57A7F2F
:1057C00000D909E002F5A06000EB4110006800F08C
:1057D0000040B0F1004FEFD00BE002F5A06000EB0D
:1057E0004110006840F0004402F5A06000EB411059
:1057F0000460002010BD0000F0B5DDE906564FF052
:10580000FF3C00EB4114059FC4F808C535B1012DDC
:1058100021D0022D02D0032D2AD114E040F29D4C5C
:10582000C4F80CC55FEA026C05D500BFD4F80CC5FE
:105830004CF4807C1AE0B0F1A04F19D0D4F80CC51C
:105840004CF0600C12E040F29D6CC4F80CC55FEAAD
:10585000026CEBD40CE040F2252CC4F80CC55FEAD6
:10586000026C05D5D4F80CC54CF4C07CC4F80CC54A
:10587000D0F818C44FF0010E0EFA01FE4CEA0E0CDF
:10588000C0F818C4816941F0007181614FF0FE5089
:1058900000EA83504FF4F04101EAC22108434FF47B
:1058A000004101EA02210843022F10D05FF00001FD
:1058B00040EA41404FF4402101EA85410843C6F3E4
:1058C0000A010843C4F80005032D02D007E00121B6
:1058D000EEE7D4F8000540F00050C4F800050020C1
:1058E000F0BD014640F21440405880B270470000BD
:1058F0002DE9F84F05460C4616464FF0000BDA46E8
:1059000000274FF48078B946B5F1A04F1CD020791C
:10591000D0B94EB96079012806D161782846FFF7E1
:1059200059FE0020BDE8F88F012E0DD1607805F5F5
:10593000A06101EB4010C06820F06002607801EBCC
:105940004010C26000206071206968B1218920691F
:105950000844401EB0FBF1F087B2474505DD4746DD
:1059600020897843206100E00127E07810B1208988
:10597000784320612069C0F312003E4901EAC74123
:105980000843A17A4FF0C04202EA417108436178AE
:1059900005F5A06202EB4111086136B1607805F5AA
:1059A000A06101EB4010E26842614FF48160405910
:1059B00000F0010080F0010B607805F5A06101EBBB
:1059C0004010006820F00052607801EB4010026047
:1059D000607801EB4010006840EA4B72607801EBA0
:1059E00040100260607801EB4010D0F8009029F080
:1059F000804949F00049607801EB4010C0F8009000
:105A0000AEBBE07898BB206988B3E07930B101285B
:105A100013D0022803D003281ED10DE000BF206957
:105A2000C01CC0F38F0AE86A80B2504503D2A8694F
:105A300040F02000A86110E000BF2069C01CC0F346
:105A40008F0A4FF48260405980B2504503D2A86952
:105A500040F08060A86100E000BF00BF002000901F
:105A6000208A83B262782846E16800F02DF9002090
:105A700058E700000000F81F034800780A2802D108
:105A80000148FFF7E5BC7047188700202DE9F04773
:105A9000174604460025DDF82090C0F8005E806BB4
:105AA00020F48020A063A06B20F40020A063A06BF2
:105AB00040F40010A0634FF0A048032B06D14445EA
:105AC00004D0D4F8000440F0040003E0D4F800044B
:105AD00020F00400C4F8000410212046FFF7C6FDA2
